:1000000000800020BD010000B11B0000B51A0000F7
:10001000B51A0000B51A0000B51A0000B51A0000A4
:10002000B51A0000B51A0000B51A0000B11B000097
:10003000B11B0000B51A0000F5270000E5270000FD
:10004000B11B0000B11B0000B11B0000B11B000080
:10005000B11B0000B11B0000B11B0000B11B000070
:10006000B11B0000B11B0000B11B0000B11B000060
:10007000B11B0000B11B0000B11B0000B11B000050
:10008000B11B0000B11B0000B11B0000B11B000040
:10009000B11B0000B11B0000B11B0000B11B000030
:1000A000B11B0000B11B0000B11B0000B11B000020
:1000B000B11B0000B11B0000B11B0000B11B000010
:1000C000B11B0000B11B0000B11B0000B11B000000
:1000D000B11B0000B11B0000B11B0000B11B0000F0
:1000E000B11B0000B11B0000B11B0000B11B0000E0
:1000F000B11B0000F12E0000B11B0000192E000002
:10010000B11B0000892D0000B11B0000B11B0000D5
:10011000B11B0000B11B0000B11B0000B11B0000AF
:10012000B11B0000B11B0000B11B0000B11B00009F
:10013000B11B0000B11B0000B11B0000B11B00008F
:10014000B11B0000B11B0000B11B0000B11B00007F
:10015000B11B0000B11B0000B11B0000B11B00006F
:10016000B11B0000AD0F0000B11B0000B11B00006F
:10017000B11B0000B11B0000B11B0000B11B00004F
:10018000B11B0000B11B0000B11B0000B11B00003F
:10019000B11B0000B11B0000B11B0000B11B00002F
:1001A000B11B0000B11B0000B11B0000B11B00001F
:1001B000B11B0000B11B0000B11B000008B55B4B78
:1001C0004CF220521A804DF628121A8000BF00BF50
:1001D000102223F80E2CA3F51F43DE3B4FF01062D4
:1001E0001A60534A9A60534ADA60534A136813F408
:1001F000807304D151490B604FF4A8531360504BE6
:100200001A78100703D51A7842F008021A704D4B7D
:100210004D492A221A704D4A4D4B8B4204D252F856
:10022000040F43F8040BF8E74A4B4B4900228B427A
:1002300002D243F8042BFAE74849494A002352F80E
:10024000230041F8230001336F2BF8D1454B464A78
:10025000802103F8011B9342FBD1444B3F4A1A60B3
:10026000434B8A221A70A3F5805324225A70A0228D
:100270001A709A799107FCD59A79D206FCD43D4A36
:10028000937903F00C03082B3A4BF9D103221A712E
:1002900040225A719A799406FCD5364A9179354BA9
:1002A0004806FBD5344A35491160022151602022AD
:1002B0001A709A7902F00C020C2AFAD1304B314AAA
:1002C0001A60314B314A1A60002407225C6043F8FF
:1002D000042C2F4AC3F80C2D62B601F0BBFC174B5F
:1002E0001A68D1070AD52B4A2B491C60146042F8C2
:1002F000041C10221A60294A29491160294A1278DF
:1003000052060ED52549264A0868904209D121484F
:10031000214C00221A60026040F8044C1020186042
:100320000A6002F0ADFF00F0A3F800BF0E20054008
:10033000823F04000100002B10D0034014D0034082
:1003400002D0074000E007400492FF1F284600004B
:100350002087FF1F0492FF1F9C95FF1F0082FF1F35
:100360000000000000E400E05FE400E008ED00E0D1
:100370000050064000400640448004400000030155
:1003800004800440C010050014E000E0FF76010086
:100390000000202004D003409830635F1CE003403D
:1003A000A5C3945A00F00740FFFFFFFFFFFFFFFFC8
:1003B000FFFFFFFFFFFFFFFFFFFFFFFFFFFFFFFF4D
:1003C000FFFFFFFFFFFFFFFFFFFFFFFFFFFFFFFF3D
:1003D000FFFFFFFFFFFFFFFFFFFFFFFFFFFFFFFF2D
:1003E000FFFFFFFFFFFFFFFFFFFFFFFFFFFFFFFF1D
:1003F000FFFFFFFFFFFFFFFFFFFFFFFFFFFFFFFF0D
:10040000FFFFFFFFFFFFFFFFFFFFFFFFDEF9FFFF23
:1004100010B5054C237833B9044B13B10448AFF33E
:1004200000800123237010BD0492FF1F0000000014
:100430002C460000084B10B51BB108490848AFF323
:1004400000800848036803B910BD074B002BFBD0A0
:10045000BDE81040184700BF000000000892FF1FD1
:100460002C4600000492FF1F00000000FFFFFFFF6A
:10047000AE4BAF4D5A68AF4CAF48DFF8D8A292E808
:100480000A000E6833432DE980480B60A74BAB4947
:100490001B68AB4E1D60DC6018611960A34BA94955
:1004A0005B7AA948A94CD5180A3395F8245052F81C
:1004B000237001EBC5038BB05B681F609B4B1B7AFD
:1004C000D51802EB83032D7EDF6901EBC5035B6862
:1004D0001F60964B9B7AD51802EB830395F830701A
:1004E0005A6B9B4D01EBC70301215B681A604FF407
:1004F000A27286F880120260036823F02003036072
:1005000084F880122A602B68DAF8002023F0200398
:10051000D2F884402B60637E23B1204602F0BAFA01
:10052000DAF80020636B8B4D5B0103F184430121FA
:100530002020C3F88814C3F88414C3F8801484F806
:100540002000D2F88400102102F060FBDAF80040AD
:100550000521D4F8840002F0F3F9D4F88460737EA6
:10056000304623B102F096FA2C68D4F88400736BFD
:100570005B0103F1844300210422C3F8101186F8C3
:10058000242002F08DFDD4F884506B7E23B12846E0
:1005900002F080FADAF800406A6B01234FF40001A0
:1005A000116585F82230D4F88860737E23B1304617
:1005B00002F070FADAF80040736B664D5B0103F1EC
:1005C000844301222021C3F88824C3F88424C3F87B
:1005D000802486F82010D4F88800102102F016FB41
:1005E000DAF800400521D4F8880002F0A9F9D4F81F
:1005F0008840637E204623B102F04CFA2B68D3F882
:100600008800636BDFF86491534FDFF864B15B01DE
:1006100003F184430022C3F81021042384F824301A
:1006200002F03EFD9AF814204A4B012A40F26C82F7
:1006300072B61B6962B6BAF9182046491BB29A42D3
:1006400015D0002BC0F2A583FF2B00F39B831A016A
:100650004248434C0168AAF8183041F480530360C3
:10066000404B82F30C02C02112B221701A80DAF8DA
:100670000000D0F88480D8F8283093F822305C0647
:1006800000F1E282B8F81630374A02929BB243F08A
:100690000403A8F81630D0F88840A36A1B7C03F046
:1006A0001F031F2B00F07F83637D627E0133637520
:1006B000002A40F07483636B5A0102F18442D2F83D
:1006C0001C54003518BF0125002D00F0A18272B620
:1006D000636B1A6803929A680492DA6805921A6A40
:1006E0005B6A0692079362B6636BA16A5A0102F1D4
:1006F00084420020C2F88C04097C0A0600F1788349
:100700005B0103F184430122C3F8902172B6606B50
:10071000420102F1844201F01F039269003218BFC6
:10072000012203EB8213036062B625E0FC87FF1F02
:1007300001401F00011000380110007800001F80E8
:100740000C10FE43E84400000CB004401018FE43B7
:1007500010C004402092FF1F4A95FF1F2C800440C8
:1007600021C00C4000C00C4090EEFEFFE492FF1F41
:100770002095FF1F02F0F0FC636B5B0103F18443E3
:1007800003F58063DB69002BF4D172B6626B530111
:1007900003F18443DB69002B00F02C82106980B2E6
:1007A00003F062FB76A3D3E9002303F0EDFC76A30C
:1007B000D3E9002303F0BEFB75A3D3E9002303F0C4
:1007C000B9FB75A3D3E9002303F0B4FB03F0C4FD28
:1007D000C3B20093C0F307230193C0F30748060E8A
:1007E00062B665B172B6636B049A9A60059ADA6074
:1007F000069A1A62079A5A62039A1A6062B6637D71
:10080000013B63750298664C03F02EFB5CA3D3E9B1
:10081000002303F0B9FC5CA3D3E9002303F08AFBB7
:100820005DA3D3E9002303F085FB00225D4B03F0B9
:10083000ABFC03F091FD9DF800308AF822309DF862
:100840000430DAF81C208AF82600051201144FF053
:10085000AA0E000E8AF8233055238AF824808AF8DD
:1008600025608AF827508AF828108AF829008AF823
:1008700021208AF820E08AF82A3009E04A4A052334
:1008800013704A4A00231370494BA34200F0A6801C
:1008900014F8013B454A8DF82730012313700DF100
:1008A0002705D9F8000028B34388C3F14006012E7C
:1008B00028BF01269A1992B2002142808AF82B1093
:1008C000002E00F00881034415F8012B1A724388AA
:1008D0003F2BD3D94023038002F006FC0022C9F845
:1008E0000020314A0523012E1370CAD0D9F8000028
:1008F0000028D9D13B78002BC3D04AF2F928012631
:1009000072B6DBF80C30C3B100225B680132002BF9
:10091000FBD162B6072A14D9B8F1010857D09AF86A
:100920002B30002B53D102F017FC3B78002BA8D0C2
:1009300072B6DBF80C30002BE6D11A4662B6072AF5
:10094000EAD81A4B1E7072B61A4B1A681846B2FAD9
:1009500082F30B2B32DC4FF00041D94022EA010236
:10096000026062B6144A144803EBC30302EBC302ED
:10097000002140F83310C9F800201046516093E779
:1009800000000000E0FFEF400000006066660A40E3
:1009900074D145175D7401400000000080842E4131
:1009A0004092FF1F00A08940E192FF1FE292FF1FCB
:1009B0004B92FF1FC089FF1FBC83FF1F62B6974A7F
:1009C0000023B8F10108C9F800301370A7D1012342
:1009D0008AF82B30924BA3427FF45AAF9AF82C300E
:1009E000002B00F0BC808F4B93F88022002A00F08F
:1009F000F981012283F88020DAF81C308A4A7F2BA3
:100A000003F10101C4BF002382F82C30874BCAF8E0
:100A10001C1093F88022002A00F0DE81012283F866
:100A20000021834B1B684FF000400022D8625A63BC
:100A3000DA6A002AFCDAC9B24FF00042986BDA6237
:100A40005963DA6A002AFCDA784A9B6B92F88032A2
:100A5000002B00F0BB81012382F8803072B675490B
:100A6000754B764A1B680C68126862B6500102D555
:100A7000322B88BF0134C3F5BB33714E6E49DFF8AA
:100A8000BC81FF334FF47A72A6FB030302FB04F42C
:100A900004EB93140A2572B6664B08681A68D8F8F6
:100AA00000E062B6C0F5BB33FF33A6FB03C31EF004
:100AB000806FC4EB93134FF47A7C02D0322888BF46
:100AC00001320CFB0233B3F57A7F0BD3013D13D017
:100AD00004F57A74DFE73F2A3FF6FCAE594A052356
:100AE0001370DEE6009102F037FB0099D3E7012393
:100AF000CAF81C508AF82C3002F02EFB9AF8142009
:100B0000494B012A3FF694AD72B65A689968147839
:100B10000878597B1A7B084202EA040200F06E81D1
:100B20009B7B03F003030AB143F0040343F0080383
:100B30009A10013B8AF80E200D2B00F28181DFE82C
:100B400013F0780172016C0172017F016601780176
:100B5000780166017F0172016C0172017801314BED
:100B600093F88022002A00F02B81012283F80021D3
:100B700072B63049304B314A1B680C68126862B655
:100B8000510102D5322B88BF0134C3F5BB332C4E43
:100B90002949DFF8A880FF334FF47A72A6FB0303DC
:100BA00002FB04F404EB93140A2572B6214B086887
:100BB0001A68D8F800E062B6C0F5BB33FF33A6FB75
:100BC00003C31EF0806FC4EB93134FF47A7C02D002
:100BD000322888BF01320CFB0233B3F57A7F04D38D
:100BE000013D84D004F57A74DFE7009102F0B4FA95
:100BF0000099DAE7E38A9BB243F08003E3824FF087
:100C0000A60ECE23FF264FF08A088DE80840E7E5C0
:100C10000595049507950695039566E5E292FF1FF5
:100C20004B92FF1F1018FE432092FF1F0C10FE4333
:100C3000FC87FF1F1893FF1F18E000E004ED00E0A1
:100C4000ABAAAAAAE192FF1FD8F83030197822295E
:100C500004D0997822297FF415AD02335C7804F032
:100C60001F031F2B3FF40EADD8F83430590101F1AA
:100C7000844101F52061C96D11B121067FF502ADF6
:100C800098F8151098F81900013188F81510002807
:100C900040F0EC80590101F1844198F81B20D1F813
:100CA0001C440392003418BF0124002C00F0D580AE
:100CB00072B6D8F834301A6800929A68DE681D6AF5
:100CC0005B6A0192029362B6D8F83430D8F83010DB
:100CD000580100F184400022C0F88C2408782228B2
:100CE00000F0CD808878222818BF1F2000F0C68031
:100CF000590101F18441D1F85C3A002B00F0B38036
:100D0000022372B6D8F83400410101F184418969A7
:100D1000002914BF602120210B44036062B601E06A
:100D200002F01AFAD8F834305B0103F1844303F57A
:100D30008063DB69002BF3D172B6D8F834104B0115
:100D400003F18443DB69002B7ED0039A0B69102AE0
:100D50001BB200F0918062B65CB172B6D8F8341064
:100D6000019A8A60029ACE600D624A62009A0A6015
:100D700062B698F81510DAF800000293013988F885
:100D8000151088E472B6FF230B6162B64FF47F62E0
:100D90005EE472B600220A6162B6134658E4204649
:100DA00001F078FE87E4E38A9BB243F00403E38218
:100DB000CE22A623FF264FF08A088DE80C0021E5FD
:100DC000304A136823F002031360D1E62E4A1368F9
:100DD00043F00303136041E62B4A136823F0020338
:100DE00013601EE6274A136843F00303136003E60B
:100DF0005A0102F18442C2F8900187E49B7B03F020
:100E00000303002A3FF494AE43F0040390E6DAF8BB
:100E10001030023BCAF810300CE4DAF8103002331C
:100E2000CAF8103006E4DAF81030013BCAF8103086
:100E300000E4DAF810300133CAF81030FFF7FABBDB
:100E4000DAF81030FFF7F6BBB8F816100F4B89B27E
:100E500041F08001A8F816107DE72646019402941F
:100E60002546009432E700F01F034AE7404601F0B0
:100E700011FED8F834300DE75B006CE7023148789A
:100E800036E700BF10C004400CB0044090EEFEFFF7
:100E9000F8B5354C354E364D36496160002286F83E
:100EA0008022354B354F364840F203162E6001251F
:100EB00083F880223E604FF47A43E260206025721E
:100EC0006572013BFDD103780A782E49D20703EA07
:100ED000050348BF43F002032B4D48BFDBB202209D
:100EE000A372AC60012702F06FF82849EC60032080
:100EF000277402F069F8237C254D3B449420237429
:100F000003F052FA05F12C032249234A0363002619
:100F100039230446856206764163826380F83C305B
:100F200000F1400601F0BEFE05F1300E1B4A1C49DF
:100F3000A2673A235C3584F87C3084F858703046D8
:100F4000C4F868E02567616701F0ACFE154BC4F892
:100F50008860022284F88020C4F89060C4F884403D
:100F6000C4F88C401C60F8BD2492FF1F0018FE439B
:100F700000C004403002FE433000FE433090044085
:100F8000001AFE43592600005092FF1FD52500008D
:100F90003044000000B0034010600340386003405C
:100FA00000B00B402092FF1F704700BF2DE9F04FAB
:100FB000DFF80CA3DFF828B385B057E0B94E9F08DF
:100FC00006EBC708013DD8F8042003F00803EDB292
:100FD000A2F1080003F0FF04002B40F01F8156F837
:100FE00037301B0C99B222F8081C002B00F00D8141
:100FF000AB000AEB030E22F8064C42F8044CDEF874
:101000002020002A00F08F81DEF830205060A64CAE
:1010100034F8152053441144186324F8151072B69F
:10102000A2480268B2FA82F30B2B00F373814FF0EF
:101030000041D94022EA0102026062B69C4C9D4800
:101040009D4A03EBC30304EBC30118F0080F18BF5C
:10105000024601F108050020C8F8045046F8372080
:1010600044F83300486008238BF800309BF80020D8
:10107000D2B253071DD5914B1B78BBB19AF808101B
:1010800001F0FF0331B1013B8D49DBB20B72002B44
:1010900000F0F9849AF8091001F0FF0331B1013B27
:1010A000DBB28AF80930002B00F01C8104238BF896
:1010B000003002F0080303F0FF00002B00F0DB809B
:1010C000804B1B78DBB21D097FF478AF9B08DFF8FB
:1010D000D49159F8332009EBC300C2F38302013ADB
:1010E00040680C2A00F28280DFE802F0848480806D
:1010F0008080808046808080070090E82400CAF8C5
:101100001020CAF8145092B240F281650020694E56
:1011100049F833600124AA42CAF81800C9F810003F
:10112000C9F818008AF81C405E4B00F2FF80B2F547
:10113000D06F80F0A183B2F5817F00F08B8300F245
:101140003082802A00F09981822A40F03C835C4BF7
:101150009B8A03F07F03042B00F235835A4A5849D7
:101160009B001A440870487013789D0740F1BF83B4
:101170000C700846022485E1DAF8183053B3504A5F
:10118000B2F84A40107F92F84920402C264642F09F
:10119000020728BF4026002880F00100A4EB0604C7
:1011A0000CBF8825C8258AF81C0009EBC700A4B22B
:1011B00045EA064582F001024360AAF84A4049F830
:1011C000375033448AF8492014B9402E18BF002301
:1011D000CAF81830BAF81030B3F5A06F06D1002263
:1011E0008AF81120394A9AF812301370384A0123CC
:1011F000137038E7BAF8104042F22102944200F02E
:1012000099812C4A49F83320F0E72A4A2A4B18F0F2
:10121000080F18BF134646F8373024E701F0DCFF0B
:101220002C4A2D4952F82530002B00F07381586864
:101230004C5D42F8250003F10802C8F80420032C95
:1012400005D8DFE804F0120F150204224A551A8867
:1012500018F0080F0CBF8823C82343EA024346F85E
:10126000373000E702224A55F1E703224A55EEE7FC
:1012700005224A55EBE7D40700F1E881100600F19A
:101280008582910706D5154915480B780224DBB2F3
:101290000B700470D30602D5114B10221A7005B0E2
:1012A000BDE8F08F0080FF1F4C95FF1FC089FF1F16
:1012B000BC83FF1FC8004000880040004A95FF1F04
:1012C000D892FF1F90200740C02007409820074079
:1012D000942007402095FF1F1C95FF1F8820074082
:1012E000802007409AF80A30002B7FF4DFAEDAF84E
:1012F0000C30002B00F0D6825988198072B6BE4996
:10130000C878032800F23D83DFE810F0770264021A
:101310007A02EE0262B6B94A13780021013346F828
:10132000371013709FE6CEF8200070E642F22105D8
:10133000AA4200F0EB8000F27781B2F5086F00F06E
:101340002F82B2F5106F40F03E821A6AAC49AD4868
:101350008C7C0470170600F12483D9F82830AA4A3F
:101360001E0600F16D83D9F83030A74A1D0600F142
:101370006283D9F83830A44A1C0600F15783D9F8A3
:101380004030A14A180600F14C83D9F848309E4AF3
:10139000190600F12F83D9F850309B4A1B0600F143
:1013A0002483D9F85830984A1F0600F11983D9F8D8
:1013B0006030954A1E0600F10E83D9F86830924AD3
:1013C0001D0600F10383D9F870308F4A1C0600F126
:1013D000F882D9F878308C4A180600F1ED82D9F8F5
:1013E0008030894A190600F1E182D9F88830864AAE
:1013F0001B0600F11083D9F89030834A1F0600F1D4
:101400000483D9F89830804A1E0600F1F8827F4A9A
:101410007F4B804C02920026774ADFF808820394C3
:10142000019235461C46206828B1476801F0D4FE79
:101430003846002FF9D1784BD8F80000256043F8E2
:10144000265028B1476801F0C7FE3846002FF9D171
:10145000029A019B42F8045B1B780292039AC8F837
:101460000050023B22F81650032B00F22181DFE8E6
:1014700013F08A011B018A011B01614B02241870C1
:1014800058701846BAF81630A34280F0FD829AF8D8
:10149000497047F0020E09EBCE02402B9C4628BF54
:1014A0004FF0400C506000EB0C06CCEB03024FEA0F
:1014B0000C4500230124C820054387F0010049F8AA
:1014C0003E508AF81C308AF849004F4D002A40F0FF
:1014D0009A81BCF1400F19D140F0020009EBC00124
:1014E000494D4E601104002B40F0A18141F088016C
:1014F00045F830108AF81C408AF84970B318402A21
:1015000004D10022CAF81830AAF84A20434A01231D
:1015100013706BE64B5D032B00F2958101A252F82C
:1015200023F000BF67100000671000009D16000048
:10153000A3160000324A928AD2B93149027845781E
:10154000847881F8CC20C27881F8CD5081F8CE40E3
:1015500081F8CF20D1F8CC2005794479807981F8C1
:10156000D050862A81F8D14081F8D20000F01D8148
:101570009AF849409AF81C0044F00202002884F0CE
:1015800001048AF849400CBF8824C82449F8324035
:1015900009EBC20280F0010000248AF81C005460AC
:1015A0002FE640F202339A4240F00381144B9A8AAC
:1015B00002F07F02042A00F20681588A002840F0D7
:1015C0000281174D9200154403462A7842F0020228
:1015D0002A70002216461546944610469AF849701D
:1015E00047F0020E09EBCE08002CC8F804000CBF2F
:1015F0008820C82060E700BF1C95FF1F4995FF1F8A
:10160000D892FF1F4A95FF1F0080FF1F3095FF1FD4
:10161000F892FF1F4C95FF1F0893FF1F942007406F
:10162000C02007402095FF1F42F221239A4240F03C
:10163000C680B04B9B8A002B40F05481AD4AAD4927
:10164000106C927C486481F84820C2E7AA4BAB4CEE
:10165000186102212170DFF8D8E2A9491960996068
:10166000A44AA84DA84FA94E98610D218EF80010EC
:10167000FF2129704FF09F0E3970307029710126BB
:1016800002F14C0502F18C0187F804E0267082F823
:1016900049005D60D96005B0BDE8F08F00234B556F
:1016A000E1E401234B55DEE4019B4FF001021A7087
:1016B000019B01360133042E04F1040408F10408EF
:1016C00001937FF4B0AE9248924C934D934A8A4E68
:1016D00000230370C9F83030C9F83830C9F85030E9
:1016E000C9F858301527237019242F70147072B65A
:1016F0008B4D2C68B4FA84F20B2A00F3A6814FF0CC
:101700000047D74024EA07042C6062B6854F7C4C22
:10171000346602EBC20207EBC20404F1080147F889
:1017200032307166636072B62A687D4CB2FA82F319
:101730000B2B00F39A814FF00040D84022EA0002C0
:10174000226062B6774C784AC9F8682003EBC3037D
:1017500004EBC302002002F1080544F83300C9F885
:101760006C505060714B9AF81C4000221520187084
:1017700084F00103C9F87020C9F87820C9F89020D6
:10178000C9F8982025E7019B1D7091E768485E4BDA
:1017900080210D240470197091077FF57BAD72E5EF
:1017A000644B54481B7803706CE652490F220A724E
:1017B000DEE6B2F5A06F06D10023012409E742F26C
:1017C00021339A42F8D05A4B0F221A704B4A012308
:1017D00013700BE558480224CC701C8810F0080FD9
:1017E0000CBF8821C821083341EA044180E80A007F
:1017F00062B60023CAF80C3058E403244F48EBE7E4
:1018000005244E48E8E7402A7FF666AE40F0020025
:1018100005EBC0014E60A3B143498AF81C40403A31
:101820008AF8497006F1400345F830106AE641F045
:10183000C8018AF81C408AF84970B31845F830107E
:101840005DE62F49E9E718F0080F0CBF02230323D8
:101850004B5508E4274B9A8A02F07F02042AB2D83B
:10186000588A0028AFD1324D9200154403462A7899
:1018700022F002022A70ACE61E4B31485C8A9D8A37
:10188000304B03E00C33586800289CD01A88A242E1
:10189000F8D15A88AA42F5D1240A032C0CBF047847
:1018A0001C89EFE572B61E4D2868B0FA80F10B294D
:1018B00071DC4FF00044CC4020EA0400286062B69E
:1018C000184D01EBC10005EBC00445F830306360F2
:1018D00072B61D49CB78032B00F2BD80DFE803F020
:1018E0004B36484E034674E60424134874E7014817
:1018F0000224C7E5D892FF1F0080FF1F94200740F5
:10190000880040008820074080200740982007403A
:101910004995FF1FC4200740C8200740CC2007403E
:10192000C089FF1FBC83FF1FC8004000D0200740B4
:10193000C02007404A95FF1F9880FF1F9080FF1F1F
:101940003488FF1F904400001C95FF1F554B022652
:1019500013F0080F35F83000CE700CBF8821C82175
:10196000083441EA004183E8120062B6FFF79EBBEB
:1019700005264D4BECE703264B4BE9E70426494B84
:10198000E6E74A49C868002877D04949C8684360F3
:10199000CB6062B62DE762B601238AF80930FFF703
:1019A00085BB586A083801F017FCD6E4D2F88400E9
:1019B000083801F011FC18E5D06F083801F00CFC74
:1019C0000DE5506F083801F007FC02E5D06E0838CD
:1019D00001F002FCF7E4506E083801F0FDFBECE486
:1019E000D06D083801F0F8FBE1E4506D083801F0E3
:1019F000F3FBD6E4D06C083801F0EEFBCBE4D2F870
:101A00009C00083801F0E8FB01E5D2F894000838A2
:101A100001F0E2FBF5E4D2F88C00083801F0DCFBC1
:101A2000E9E4506C083801F0D7FBAEE4D06B08381D
:101A300001F0D2FBA3E4506B083801F0CDFB98E431
:101A4000D06A083801F0C8FB8DE462B602783366CC
:101A5000531C037067E6154BD96889B11449CB68EC
:101A60005C60CC6062B6FFF721BB62B603780022EF
:101A70000133C9F86820037074E6CB600C4987E72E
:101A8000DC600B49EDE700BE402CA44628BF4FF0B8
:101A9000400CCCEB04024FEA0C4500EB0C06002393
:101AA00001249BE59880FF1F9080FF1F2095FF1F5A
:101AB0003095FF1F2DE98848344D354EDFF8E08022
:101AC000DFF8E0A0DFF8E090324FDFF8E0B0324C12
:101AD0000BE0DBF80020500511D4DBF800201105E5
:101AE00013D4DBF80020D20415D4DBF80020530314
:101AF000EFD5FFF75BFADBF800205005EDD501F0DC
:101B0000F7F9DBF800201105EBD501F085F9DBF8DA
:101B10000020D204E9D5227993060DD5E1792A78FF
:101B2000307801323F2AC8BF00229042C9B203D0A8
:101B3000D0B208F802102870E278D2B2100609D4A8
:101B40005206D2D522795306CFD500212C223970E6
:101B5000E270CAE721790906F2D59AF8000099F8EF
:101B60000010C9B288420DD00131272984BF00205E
:101B700001460A4B98BFC8B2595CC9B2E17189F8F5
:101B80000000DDE76C21E170DAE700BFB093FF1FD2
:101B9000B193FF1F2094FF1F00C00640F893FF1F62
:101BA000B493FF1FF493FF1FF593FF1F348004408D
:101BB00008B5FFF77FFF00BF2DE9F843054672B671
:101BC000204F214B214A1B683C6C126862B65201BF
:101BD00002D5322B88BF013495B3C3F5BB331C4EFD
:101BE000DFF86490DFF86480FF334FF47A72A6FB6D
:101BF000031302FB04F404EB931472B6D9F800103B
:101C00003A6CD8F800E062B6C1F5BB33FF33A6FBEF
:101C100003031EF0806FC4EB93134FF47A7002D06D
:101C2000322988BF013200FB0233B3F57A7F04D337
:101C3000013D05D004F57A74DFE701F08DFADCE7A9
:101C4000BDE8F883D892FF1F18E000E004ED00E043
:101C5000ABAAAAAAA94BAA48AA49DFF8F8C24FF42E
:101C600000022DE9F0411A604FF080721A604FF0C7
:101C700000721A604FF080621A604FF000621A60C2
:101C8000A14FA24EA24CA34DDFF8CCE2DFF8CC82EC
:101C90000022026028234BF6FF70CCF80000CEF83B
:101CA00000303B600B60336023602B60BB628B6253
:101CB000092146F8241C06F57F66C4F8D82FC5F81C
:101CC000D40FC7F8F83F05F5FF25336007F5FF2768
:101CD000C4F8D41F06F5FD2604F5FF2405F5FA65C2
:101CE00007F2F47706F5FF6604F5FD640CF56F3C2A
:101CF0002A600CF2F93C38600EF53F5E33602360D9
:101D0000A4F5FA24602345F8041C0EF13C0E88F873
:101D10000030083C07F54057E1238CF800303921AA
:101D2000132306F5405605F54055CEF800107A48C5
:101D300023601C353960794933608423026084B0A4
:101D40002A601920A3610B60FFF736FF72B6A5F574
:101D50001B25734B7348193D702241260F248021A7
:101D60001A702E701A460470197013781B06FCD571
:101D70006D4B1B6862B66D4A6D4E93429CBF0A2242
:101D80005343A6FB0312D20802EB8201A3EB4103EB
:101D900030338DF804301346002A00F09E8001A8ED
:101DA00004460021A6FB0352D20802EB8205A3EBF6
:101DB0004503303304F8013F01311346002AF1D1C5
:101DC00004AC0C4401AA0A4404F80B3C14780578CE
:101DD00000F8014B0133CC1AA34202F80159F5DB9C
:101DE0009DF80420534B002A73D09DF80510DA8229
:101DF000002975D09DF806201983002A72D09DF81D
:101E000007105A8300296FD09DF808209983002A73
:101E10006CD09DF80910DA83002969D09DF80A205A
:101E20001984002A68D09DF80B105A84002961D0CB
:101E30009DF80C209984002A4AD09DF80D10DA8470
:101E40000922002945D0198516223B4C1A7504F148
:101E5000A000234600221A605A60083383424FF0E4
:101E60000001F8D1354A364E1368364D3648DFF852
:101E7000F0C0DFF8F0E0354FDFF8EC8043F480236A
:101E80001360C4F307233370C4F307432B70240E8D
:101E9000FF2302F5283204702D4E8CF80030174CC9
:101EA0008EF80030D4323B70012388F80030702760
:101EB00085F8501000F8303C4FF40075102140F2C6
:101EC000131037702560117004B0BDE8F04173E65F
:101ED000082201325200D2B2B7E78DF805207FE721
:101EE0000122F6E70222F4E70322F2E70422F0E7F8
:101EF0000522EEE70722ECE70622EAE708E100E028
:101F0000048003401C80034014800340248003406D
:101F10002C8003403480034020B0034024B00B40A9
:101F20000000024006000240080002407F96980030
:101F3000CDCCCCCC3488FF1F0080FF1F3480044000
:101F40009C200740B0200740B420074010200740E5
:101F500049E400E0088003400C8003400040074053
:101F6000802007408820074094200740FEE700BFFC
:101F7000FEE700BF0A4908B5CB6A40B16A4618447B
:101F8000A2F58052904204D2C862184608BD184695
:101F900008BD01F06FF90C2303604FF0FF3008BD5E
:101FA0003488FF1F1F4B10B4DA6B13685068197820
:101FB0000478507A137A044201EA03011AD0937A22
:101FC00003F0030309B143F0040343F0080399103D
:101FD000013B91720D2B0BD8DFE803F01E071907A8
:101FE0000A141E1E140A0719071ED368013BD3608A
:101FF00010BC7047937A03F003030029E7D043F045
:102000000403E4E7D36810BC023BD3607047D36895
:1020100010BC0233D3607047D36810BC0133D36067
:10202000704700BF5092FF1F1F4B10B49A6B13688C
:10203000506819780478507A137A044201EA03014F
:102040001AD0937A03F0030309B143F0040343F079
:1020500008039910013B91720D2B0BD8DFE803F0B8
:102060001E0719070A141E1E140A0719071ED36833
:10207000013BD36010BC7047937A03F0030300293F
:10208000E7D043F00403E4E7D36810BC023BD3601D
:102090007047D36810BC0233D3607047D36810BC5C
:1020A0000133D360704700BF5092FF1F1F4B10B425
:1020B0005A6B1368506819780478507A137A04427E
:1020C00001EA03011AD0937A03F0030309B143F044
:1020D000040343F008039910013B91720D2B0BD8B8
:1020E000DFE803F01E0719070A141E1E140A071959
:1020F000071ED368013BD36010BC7047937A03F08E
:1021000003030029E7D043F00403E4E7D36810BCDD
:10211000023BD3607047D36810BC0233D360704772
:10212000D36810BC0133D360704700BF5092FF1FCB
:102130001F4B10B41A6B1368506819780478507AE2
:10214000137A044201EA03011AD0937A03F00303DD
:1021500009B143F0040343F008039910013B917265
:102160000D2B0BD8DFE803F01E0719070A141E1EFB
:10217000140A0719071ED368013BD36010BC7047CF
:10218000937A03F003030029E7D043F00403E4E764
:10219000D36810BC023BD3607047D36810BC0233D5
:1021A000D3607047D36810BC0133D360704700BF61
:1021B0005092FF1F1F4B10B4DA6A136850681978E9
:1021C0000478507A137A044201EA03011AD0937A10
:1021D00003F0030309B143F0040343F0080399102B
:1021E000013B91720D2B0BD8DFE803F01E07190796
:1021F0000A141E1E140A0719071ED368013BD36078
:1022000010BC7047937A03F003030029E7D043F032
:102210000403E4E7D36810BC023BD3607047D36883
:1022200010BC0233D3607047D36810BC0133D36055
:10223000704700BF5092FF1F1F4B10B49A6A13687B
:10224000506819780478507A137A044201EA03013D
:102250001AD0937A03F0030309B143F0040343F067
:1022600008039910013B91720D2B0BD8DFE803F0A6
:102270001E0719070A141E1E140A0719071ED36821
:10228000013BD36010BC7047937A03F0030300292D
:10229000E7D043F00403E4E7D36810BC023BD3600B
:1022A0007047D36810BC0233D3607047D36810BC4A
:1022B0000133D360704700BF5092FF1F1F4B10B413
:1022C0005A6A1368506819780478507A137A04426D
:1022D00001EA03011AD0937A03F0030309B143F032
:1022E000040343F008039910013B91720D2B0BD8A6
:1022F000DFE803F01E0719070A141E1E140A071947
:10230000071ED368013BD36010BC7047937A03F07B
:1023100003030029E7D043F00403E4E7D36810BCCB
:10232000023BD3607047D36810BC0233D360704760
:10233000D36810BC0133D360704700BF5092FF1FB9
:102340001F4B10B41A6A1368506819780478507AD1
:10235000137A044201EA03011AD0937A03F00303CB
:1023600009B143F0040343F008039910013B917253
:102370000D2B0BD8DFE803F01E0719070A141E1EE9
:10238000140A0719071ED368013BD36010BC7047BD
:10239000937A03F003030029E7D043F00403E4E752
:1023A000D36810BC023BD3607047D36810BC0233C3
:1023B000D3607047D36810BC0133D360704700BF4F
:1023C0005092FF1F1F4B10B4DA69136850681978D8
:1023D0000478507A137A044201EA03011AD0937AFE
:1023E00003F0030309B143F0040343F00803991019
:1023F000013B91720D2B0BD8DFE803F01E07190784
:102400000A141E1E140A0719071ED368013BD36065
:1024100010BC7047937A03F003030029E7D043F020
:102420000403E4E7D36810BC023BD3607047D36871
:1024300010BC0233D3607047D36810BC0133D36043
:10244000704700BF5092FF1F1F4B10B49A6913686A
:10245000506819780478507A137A044201EA03012B
:102460001AD0937A03F0030309B143F0040343F055
:1024700008039910013B91720D2B0BD8DFE803F094
:102480001E0719070A141E1E140A0719071ED3680F
:10249000013BD36010BC7047937A03F0030300291B
:1024A000E7D043F00403E4E7D36810BC023BD360F9
:1024B0007047D36810BC0233D3607047D36810BC38
:1024C0000133D360704700BF5092FF1F1F4B10B401
:1024D0005A691368506819780478507A137A04425C
:1024E00001EA03011AD0937A03F0030309B143F020
:1024F000040343F008039910013B91720D2B0BD894
:10250000DFE803F01E0719070A141E1E140A071934
:10251000071ED368013BD36010BC7047937A03F069
:1025200003030029E7D043F00403E4E7D36810BCB9
:10253000023BD3607047D36810BC0233D36070474E
:10254000D36810BC0133D360704700BF5092FF1FA7
:102550001F4B10B41A691368506819780478507AC0
:10256000137A044201EA03011AD0937A03F00303B9
:1025700009B143F0040343F008039910013B917241
:102580000D2B0BD8DFE803F01E0719070A141E1ED7
:10259000140A0719071ED368013BD36010BC7047AB
:1025A000937A03F003030029E7D043F00403E4E740
:1025B000D36810BC023BD3607047D36810BC0233B1
:1025C000D3607047D36810BC0133D360704700BF3D
:1025D0005092FF1F1F4B10B4DA68136850681978C7
:1025E0000478507A137A044201EA03011AD0937AEC
:1025F00003F0030309B143F0040343F00803991007
:10260000013B91720D2B0BD8DFE803F01E07190771
:102610000A141E1E140A0719071ED368013BD36053
:1026200010BC7047937A03F003030029E7D043F00E
:102630000403E4E7D36810BC023BD3607047D3685F
:1026400010BC0233D3607047D36810BC0133D36031
:10265000704700BF5092FF1F1F4B10B49A68136859
:10266000506819780478507A137A044201EA030119
:102670001AD0937A03F0030309B143F0040343F043
:1026800008039910013B91720D2B0BD8DFE803F082
:102690001E0719070A141E1E140A0719071ED368FD
:1026A000013BD36010BC7047937A03F00303002909
:1026B000E7D043F00403E4E7D36810BC023BD360E7
:1026C0007047D36810BC0233D3607047D36810BC26
:1026D0000133D360704700BF5092FF1F1F4B10B4EF
:1026E0005A681368506819780478507A137A04424B
:1026F00001EA03011AD0937A03F0030309B143F00E
:10270000040343F008039910013B91720D2B0BD881
:10271000DFE803F01E0719070A141E1E140A071922
:10272000071ED368013BD36010BC7047937A03F057
:1027300003030029E7D043F00403E4E7D36810BCA7
:10274000023BD3607047D36810BC0233D36070473C
:10275000D36810BC0133D360704700BF5092FF1F95
:102760001F4B10B41A681368506819780478507AAF
:10277000137A044201EA03011AD0937A03F00303A7
:1027800009B143F0040343F008039910013B91722F
:102790000D2B0BD8DFE803F01E0719070A141E1EC5
:1027A000140A0719071ED368013BD36010BC704799
:1027B000937A03F003030029E7D043F00403E4E72E
:1027C000D36810BC023BD3607047D36810BC02339F
:1027D000D3607047D36810BC0133D360704700BF2B
:1027E0005092FF1F024A136801331360704700BF05
:1027F0001893FF1F38B5EFF3108272B60A4C2068A9
:1028000078B100254369236003B19D6102B962B6C6
:10281000457783689847EFF3108272B620680028E6
:10282000F0D102B962B638BDAC93FF1F70B43F4B14
:102830003F4A186BDC6A017911703E4922790A70AF
:102840009A6A00790870002A46D05968C9688A4295
:102850003ED82168CC8B240402F1FF305ED4C0F353
:102860000E00C883C88B80B2C882196B0968C88BF8
:1028700000044BD4C2F30E00C883C88B002480B27E
:1028800012F1FF32C88218BF01229C62D96A274820
:1028900009680D6800F12404A5422FD00068C468BF
:1028A00014F0804F0C680D6815BF24882478023519
:1028B000013544F000440D604463196B1E4B0979E7
:1028C00019701A4912B1CA6A12791A7070BC70472D
:1028D000521A9A620122D9E71968184C0A63586B98
:1028E000CC62CC68066824F08044CC603468032550
:1028F00083F825501146234670BC1847016890F8AC
:102900002400CC6840F000404863D6E7CC8BC2F38B
:10291000080004F47E442043C883AEE7CC8BC0F3A8
:10292000080004F47E442043C8839BE7FC87FF1F14
:102930001F8000401C8000401B80004000000FFFF3
:1029400090F823308B42F0B42FD0092900F29C80FC
:10295000DFE801F02D2D530505707F8D633E436B3D
:102960005A0102F18442134603F5807302F5C072E6
:102970000026012494603546DE6137460026D66085
:102980001D605E605F619C6180F8231072B6436BCE
:102990005B0103F18443012200214276C3F89C14B9
:1029A000C3F89824C3F89C2462B6F0BC7047436B0C
:1029B0005A0102F18442134603F5807302F5C07296
:1029C00001260024946035463446DE613746D5E75B
:1029D000436B5A0102F18442134603F5807302F5FA
:1029E000C072012500249560DC6101240025D460BB
:1029F0005C601C609D615D61C6E7436B5A0102F13A
:102A00008442134603F5807302F5C0720026012448
:102A100096603546DE612746B0E7436B5A0102F106
:102A20008442134603F5807302F5C072002494605B
:102A3000DC61DAE7436B5A0102F18442134603F585
:102A4000807302F5C0720024012797602546DC617F
:102A500094E7436B5A0102F18442134603F58073F5
:102A600002F5C072002501249560DC61BDE7436B6F
:102A70005A0102F18442134603F5807302F5C072D5
:102A800001249460DC61B0E7C38A9BB243F0010388
:102A9000C3828AE7416B2DE9F047DFF86C81574C20
:102AA000574D584F243106464901C14601F1844330
:102AB000DA69002A28D02378002BF7D02A78002A58
:102AC000F4D1DA0744BF03F0FE03237000225B0752
:102AD0002A70EBD53B68002BE8D0EFF30583002B81
:102AE000E4D1EFF3108272B6386818B198F800306C
:102AF000002B3BD002B962B6716B2431490101F160
:102B00008443DA69002AD6D19B6923B1F38A9BB248
:102B100043F00203F38272B6737E03B3736B9F6B51
:102B2000DA6B1D6C5C6C986CD96C3A442A44224474
:102B300002440A44C2F34E0242F40042DA629F6D3C
:102B4000DA6D1D6E5C6E986ED96E3A442A4422444A
:102B500002440A44C2F34E0242F400421A6362B6CF
:102B6000B37E00227276BBB9BDE8F0874169396057
:102B70004FF0010E89F800E001B18B6102B962B635
:102B80004FF0000A80F81DA083689847716B88F8A1
:102B900000A02431490189E702213046FFF7D0FE29
:102BA000737E33BB736B590101F184410120002412
:102BB000C1F81001C1F88041C1F88401727E022180
:102BC00086F8241082B95B0103F1844300220120BE
:102BD0000421C3F88804C3F88424C3F88024B2769F
:102BE00086F82010BDE8F0873046FFF753FF736B7F
:102BF000E9E73046FFF74EFFD4E700BFBC89FF1F6F
:102C00004095FF1F4495FF1F4895FF1F38B5C37EB1
:102C10008B4213D0437E04460D468BBB092D0ED844
:102C2000636B5B0103F184430021FF20C3F80C11A7
:102C30000822C3F80811E061E27638BD38BD0B2DDB
:102C400021D90D2D0ED8636B5B0103F18443012262
:102C5000002040F6FF71C3F80821C3F80C010C22D4
:102C6000E161E9E7636B5B0103F1844301214FF606
:102C7000FF70C3F80C111022C3F80811E061DBE704
:102C8000FFF708FFCAE7636B5B0103F1844300228F
:102C9000012040F2FF31C3F80821C3F80C010A22D9
:102CA000E161C9E738B5037E0446002B5AD0344AA7
:102CB000136843F000631360636B5B0103F18443AB
:102CC0000022042101250220E276E26184F820201E
:102CD00084F82C206276E282627584F8210084F800
:102CE000231084F8241084F822502046C3F8905111
:102CF00000F0D6F90A212046FFF788FF637EA5760B
:102D0000002B39D1636B5B0103F184430122202541
:102D1000C3F888241146C3F884242046C3F88024CD
:102D200084F82050FFF70CFE637E0BBB636B5901E8
:102D300001F1844101220020C1F81021C1F8802155
:102D4000C1F8840184F8242072B6636B62765B015B
:102D500003F18443C3F89C04C3F89824C3F89C246B
:102D600062B638BD074A136843F000631360A3E7F7
:102D70002046FFF78FFED9E72046FFF78BFEC1E71D
:102D8000308004403C80044010B4214B1A799206F4
:102D90000ED5204AD9791378507801333F2BC8BF1C
:102DA00000238342C9B203D0D018DBB20171137083
:102DB0001749CB78DBB21C060DD4590609D5144B44
:102DC0001A79520605D5134900202C2281F870008B
:102DD000DA7010BC70470A791006EED50D4A92F8E9
:102DE000444092F84500C0B284420ED0411C2729CD
:102DF00086BF00200146C8B21144054C91F8481026
:102E0000C9B2E17182F84500D7E76C22CA70D4E7F5
:102E100000C00640B093FF1FF0B4334B1A7912F094
:102E2000300F22D072B6997D01F0FF0200292FD019
:102E300062B62E4D95F8710095F872701C46C0B2BE
:102E4000FFB2431C402BE17928BF0023BB4202F1B3
:102E5000FF32C9B203D0EE18184686F8741012F08B
:102E6000FF02EED1C0B285F871001F49CA78D2B214
:102E7000150612D4510609D51B4B1A79520605D5F1
:102E80001A4900203C2281F8E000DA70F0BC70475B
:102E90004022D9795A7462B6E7E70B791C06E9D566
:102EA000124D95F8B44095F8B530E4B2DBB29C42CF
:102EB00002D10EE0A3420CD00133282B28BF0023FF
:102EC000E8180E7990F8B800C0B2C871087D0728DC
:102ED000F0D9DBB2044985F8B5300B79180644BF48
:102EE0007C23CB70C6E700BF00B00640B093FF1F45
:102EF000F0B4334B1A7912F0300F22D072B6997DAC
:102F000001F0FF0200292FD062B62E4D95F8E100A6
:102F100095F8E2701C46C0B2FFB2431C402BE17929
:102F200028BF0023BB4202F1FF32C9B203D0EE1822
:102F3000184686F8E41012F0FF02EED1C0B285F810
:102F4000E1001F49CA78D2B2150612D4510609D53C
:102F50001B4B1A79520605D51A4900203C2281F8EC
:102F60006801DA70F0BC70474022D9795A7462B6B1
:102F7000E7E70B791C06E9D5124D95F8244195F841
:102F80002531E4B2DBB29C4202D10EE0A3420CD068
:102F90000133402B28BF0023E8180E7990F8280150
:102FA000C0B2C871087D0728F0D9DBB2044985F8A2
:102FB00025310B79180644BF7C23CB70C6E700BFD0
:102FC00000A00640B093FF1FF0B4294C04EBC003EF
:102FD0005B681A6812F4E06201D121283BD9254AC6
:102FE0002548264CC2F89C0103F14040C2F8A0419C
:102FF000A0F59224224F234E234DC2F8A4717C2CBD
:10300000C2F8A861C2F8AC5123D9A0F594227C2A59
:103010000DD9A0F596227C2A27D9A0F598227C2AE2
:1030200021D9A0F59A207C2811D8184D00E0184D20
:1030300072B61A6822F4702242F08570C3F38404D9
:1030400040F480301A6045F82410186062B6F0BC75
:103050007047104DECE754F830404FF4807084F81E
:1030600080221860BBE70C4DE2E70C4DE0E700BFA3
:10307000E84400000082FF1FD187FF1FA587FF1FC4
:103080007987FF1F4D87FF1F2187FF1FDC88FF1FE8
:103090003489FF1F8489FF1FE488FF1F0489FF1FF5
:1030A00090F82130D3B10E490E4B00220A701A70ED
:1030B000436B80F821205B0103F18443C3F80024B3
:1030C00072B6436B5B0103F1844301214176C3F87F
:1030D0009C24C3F89814C3F89C1462B6704700BFD0
:1030E000014007404000FA4272B6184A92F86F3128
:1030F000032B1DD8DFE803F016130219144B05212A
:1031000082F86F11018813F0080F14BFC8228822BB
:10311000083042EA014258601A6062B670470221E4
:103120000C4BEDE703210A4BEAE70421094BE7E7E3
:10313000D2F87C31054933B1D1F88C315860C2F8EE
:103140008C0162B67047C1F87C01F8E7B093FF1FAD
:103150009080FF1F9880FF1F1D4A92F8E030BBB19E
:1031600070B51C4C94F8901189B9D90744BF03F08D
:10317000FE0382F8E03000225B0784F89021154AB4
:1031800005D5D2F8943113B1EFF305830BB170BDBF
:103190007047EFF3108172B6D2F8940110B192F833
:1031A00098311BB10029F2D162B670BD4569C2F8F1
:1031B0009451012682F8986105B1AB6101B962B6FC
:1031C000002545778368984784F89851DFE700BF6A
:1031D000DC88FF1FB093FF1F1F4A204B821AA3FBFE
:1031E00002231B090B2B14D810B41D4A92F8991115
:1031F00011B192F89A1169B972B61A484FF00041AC
:10320000D0F8E42021FA03F31A43C0F8E42062B6B0
:1032100010BC704772B614490C6E8CB18C6E24B120
:1032200062B6002182F89911E6E792F899310F4CC5
:103230008C660830013BC86682F8993162B6E7E7D0
:1032400092F899310A4C0C660830013B486682F8C6
:10325000993162B6DCE700BFBC83FF1F398EE338CB
:10326000B093FF1FDC88FF1F0080FF1FC8004000D5
:1032700088004000014B1868704700BFF08DFF1FA9
:1032800070B50F4E0F4D761BB61018BF002405D039
:10329000013455F8043B9847A642F9D10A4E0B4D2C
:1032A000761B01F0B5F9B61018BF002406D0013422
:1032B00055F8043B9847A642F9D170BD70BD00BFD8
:1032C0001C4600001C460000284600001C4600006A
:1032D000024B13B1024800F005B87047000000002F
:1032E000F1320000002301461A46184600F014B8D7
:1032F00038B5074D074C2C1BA41005D0013C55F8E0
:10330000043D9847002CF9D1BDE8384001F08CB954
:1033100000000000000000002DE9F047254C256862
:10332000D5F848410646884692469946C4B3606837
:103330001F2817DC431C76B104EB80050122C5F879
:1033400088A0D4F8881182401143022EC4F8881155
:10335000C5F808911ED00230636044F82080002038
:10336000BDE8F087144B03B34FF4C87001F01CF8AC
:103370000446D0B1D5F84831002780E88800C5F868
:10338000484138460123C4F88871C4F88C71002E76
:10339000E1D0D1E7D4F88C110A43C4F88C21DAE7E4
:1033A00005F5A674C5F84841C1E74FF0FF30BDE808
:1033B000F08700BF0C460000A9430000F8B5234F7A
:1033C0000C46064600F0E8FBBB685D6825F0030587
:1033D000291B01F6EF7121F47F6121F00F01A1F5A6
:1033E0008054B4F5805F07DB0021304600F0D8FB45
:1033F000BB682B44984204D0304600F0CFFB00203D
:10340000F8BD6142304600F0CBFB01300DD0104BCF
:10341000BA6819682D1B45F001053046091B556037
:10342000196000F0BBFB0120F8BD0021304600F020
:10343000B7FBBA68831A0F2BDEDD064C04492468FB
:1034400043F00103001B53600860D5E7F48DFF1FB4
:103450007095FF1F0092FF1F002945D02DE9F04114
:103460000D46804600F098FB55F8047C6A4927F029
:103470000103A5F10804E2188E685068B24220F0FA
:10348000030062D0FE0750600BD455F8087CE41BA3
:1034900001F1080EA56875453B446FD0E768EF6001
:1034A000BD6015186D68ED0742D543F001026260FA
:1034B000E350B3F5007F18D2DB085A1C4D6851F871
:1034C0003270A76001209B1000FA03F301EBC200E9
:1034D0001D430838E0604D6041F83240FC604046D2
:1034E000BDE8F04100F05ABB70475A0A042A53D88D
:1034F0009A0902F139077F0002F1380501EB8700D4
:1035000051F827204449083890424DD0516821F0A5
:1035100003018B4202D292689042F7D1D068E060FA
:10352000A2608460D4604046BDE8F04100F036BB44
:1035300095683A4FBD4203443FD0D068E86043F0FD
:10354000010285606260E350B3E7FF07034407D4DC
:1035500055F8082CA41A1344A068E268C260906071
:103560002F4A126843F00100934260608C60B6D32A
:103570002C4B40461968FFF721FFB0E71118496846
:10358000C90744D49168D268CA60034443F001007B
:1035900091606060E350A2E7142A17D802F15C073B
:1035A0007F0002F15B05A9E7AA104B68012505FA27
:1035B00002F213434B600246B1E743F001024C6153
:1035C0000C61E560A5606260E35088E7542A06D884
:1035D0001A0B02F16F077F0002F16E058EE7B2F55C
:1035E000AA7F06D8DA0B02F178077F0002F177058F
:1035F00084E740F25450824206D89A0C02F17D07CB
:103600007F0002F17C0579E7FE277E2576E743F00F
:1036100001026260E35062E7F48DFF1FFC8DFF1F23
:10362000FC91FF1F6C95FF1F2DE9F04F01F10B0579
:10363000162D83B0064640F29F8035F0070500F155
:10364000BF80A94200F2BC8000F0A6FAB5F5FC7F6D
:10365000C0F09C826B0A00F0BA80042B00F28381D8
:10366000A80900F1390E4FEA4E033830C44F07EB7A
:103670008303A3F108015C68A14207D1ACE0002AF2
:1036800080F2AC80E468A14200F0A680636823F079
:1036900003035A1B0F2AF2DDB9493C6901F1080EF8
:1036A000744500F0B381636823F003035A1B0F2AAB
:1036B00000F39981002AC1F814E0C1F810E080F20B
:1036C0009E80B3F5007F80F06781DB0803F1010C79
:1036D00001229B1002FA03F34A6851F83C80C4F8B7
:1036E000088001EBCC091A43A9F10803E3604A60A2
:1036F00041F83C40C8F80C40831001249C4094429F
:1037000000F28A80144206D120F0030064001442C3
:1037100000F10400FAD007EBC009CC468046DCF883
:103720000C108C4507D173E1002A80F28181C968B1
:103730008C4500F06D814B6823F003035A1B0F2A60
:10374000F2DD0C46D1F80CC054F8088F4B1945F047
:1037500001054D6042F00101C8F80CC03046CCF8BC
:1037600008807B613B61C3F80CE0C3F808E0596056
:103770009A5000F013FA1FE0102921D800F00CFA3B
:103780001025062302207E4F07EB8303A3F10802D6
:103790005C68944200F045816368E168A56823F0A5
:1037A0000303234430465A68E96042F001028D6009
:1037B0005A6000F0F3F90834204603B0BDE8F08FFA
:1037C00000240C232046336003B0BDE8F08F802333
:1037D0004FF0400E3F2049E770465DE72344E16823
:1037E0005A68A56842F00102E96030468D605A606F
:1037F00000F0D4F90834204603B0BDE8F08F23442C
:1038000030465A6842F001025A6000F0C7F90834A5
:10381000204603B0BDE8F08FBC68636823F003085E
:10382000A84504D3C5EB08030F2B00F38C80554B40
:10383000DFF860911A68D9F8003001332A4404EBAC
:10384000080A00F0608102F580520F3222F47F6294
:1038500022F00F0211463046019200F0A1F9B0F1BA
:10386000FF3F8346019A00F05881824500F2FC80B8
:10387000454B1968DA451144196000F05381D9F8B5
:103880000000DFF810E101301BBFCAEB0B0A514406
:10389000CEF800B019601BF0070100F01781C1F1EC
:1038A0000800C1F58051834408315A44C2F30B0229
:1038B000C2EB010949463046019300F071F9431CFF
:1038C000019B00F03F81CBEB00024A4442F0010231
:1038D0001968C7F808B04944BC42CBF80420196005
:1038E000DFF8A49016D0B8F10F0F40F2FD806268A7
:1038F000A8F10C0323F00703E01802F001024FF0D7
:10390000050E1A430F2B6260C0F804E0C0F808E00F
:1039100000F21C811D4BBC681A68914288BF196077
:103920001B4B1A689142626888BF196022F003023B
:103930009542A2EB050301D80F2B04DC304600F0C2
:103940002DF9002438E7621943F0010345F0010521
:1039500065603046BA60536000F020F908342046B4
:1039600003B0BDE8F08F142B71D9542B00F2A48062
:10397000280B00F16F0E4FEA4E036E3076E600BF63
:10398000F48DFF1F6C95FF1F7095FF1F6895FF1F3B
:103990006495FF1F0092FF1F5A0A042A5ED9142A59
:1039A00000F2B38002F15C0149005B3207EB810C4D
:1039B00057F82110DFF8DC81ACF1080C8C4500F0E1
:1039C00088804A6822F00302934202D289688C45BB
:1039D000F7D1D1F80CC07A68C4F80CC0A160CCF85B
:1039E0000840CC6088E6631942F0010745F0010504
:1039F000656030464B610B61C3F80CE0C3F808E02A
:103A00005F609A50083400F0C9F8D5E64A6873E65A
:103A100008F1010818F0030F0CF1080C7FF47FAED9
:103A200030E0DC68A34208BF02303FF435AEB3E6B5
:103A30000B440C465A68C96854F8085F42F001020A
:103A40005A603046E9608D6000F0A8F8B4E603F1F2
:103A50005C0E03F15B004FEA4E0307E69A0902F1A0
:103A6000390149003832A1E7BC424A4B3FF400AF6C
:103A70009C68626822F003025AE759F808399945B0
:103A800040F0828010F0030F00F1FF30F5D17B6829
:103A900023EA04037B6064009C423FF6BDAE002C29
:103AA0003FF4BAAE1C4240467FF435AE64001C427F
:103AB00000F10400FAD02EE6B3F5AA7F18D8E80B7F
:103AC00000F1780E4FEA4E037730CFE54FF4805186
:103AD000EBE60121D8F80430921001FA02F21A4301
:103AE000C8F80420614677E70123CBF8043025E7C6
:103AF00040F25452934220D8A80C00F17D0E4FEAB8
:103B00004E037C30B2E51032A4E6542A26D81A0BB4
:103B100002F16F0149006E3248E7BC68626822F02A
:103B2000030205E7CAF30B0000287FF4A8AE424465
:103B3000BB6842F001025A60ECE6FE234FF07F0EB4
:103B40007E2093E501224FF00009C1E604F108014F
:103B50003046FFF781FCD9F80010DBE6B2F5AA7F0A
:103B600005D8DA0B02F17801490077321EE740F2FE
:103B700054518A4205D89A0C02F17D0149007C32E9
:103B800014E7FE217E2211E77B6884E7E808431CE6
:103B90005B00F8E5F48DFF1F704700BF704700BF62
:103BA00038B5074C0023054608462360FEF7E2F9C6
:103BB000431C00D038BD2368002BFBD02B6038BDE0
:103BC0009895FF1F81F0004102E000BF83F00043A1
:103BD00030B54FEA41044FEA430594EA050F08BFA8
:103BE00090EA020F1FBF54EA000C55EA020C7FEA6C
:103BF000645C7FEA655C00F0E2804FEA5454D4EBE9
:103C00005555B8BF6D420CDD2C4480EA020281EAB2
:103C1000030382EA000083EA010180EA020281EAEA
:103C20000303362D88BF30BD11F0004F4FEA01313C
:103C30004FF4801C4CEA113102D0404261EB41014B
:103C400013F0004F4FEA03334CEA133302D05242D1
:103C500063EB430394EA050F00F0A780A4F101048D
:103C6000D5F1200E0DDB02FA0EFC22FA05F28018C7
:103C700041F1000103FA0EF2801843FA05F35941AD
:103C80000EE0A5F120050EF1200E012A03FA0EFC2C
:103C900028BF4CF0020C43FA05F3C01851EBE37156
:103CA00001F0004507D54FF0000EDCF1000C7EEB73
:103CB00000006EEB0101B1F5801F1BD3B1F5001FB1
:103CC0000CD349085FEA30004FEA3C0C04F10104D0
:103CD0004FEA445212F5800F80F09A80BCF1004FF9
:103CE00008BF5FEA500C50F1000041EB045141EA7B
:103CF000050130BD5FEA4C0C404141EB010111F47C
:103D0000801FA4F10104E9D191F0000F04BF014626
:103D10000020B1FA81F308BF2033A3F10B03B3F104
:103D200020020CDA0C3208DD02F1140CC2F10C0294
:103D300001FA0CF021FA02F10CE002F11402D8BFF2
:103D4000C2F1200C01FA02F120FA0CFCDCBF41EABE
:103D50000C019040E41AA2BF01EB0451294330BD8D
:103D60006FEA04041F3C1CDA0C340EDC04F114046A
:103D7000C4F1200220FA04F001FA02F340EA030041
:103D800021FA04F345EA030130BDC4F10C04C4F187
:103D9000200220FA02F001FA04F340EA0300294667
:103DA00030BD21FA04F0294630BD94F0000F83F4B1
:103DB000801306BF81F480110134013D4EE77FEA94
:103DC000645C18BF7FEA655C29D094EA050F08BFE0
:103DD00090EA020F05D054EA000C04BF19461046C1
:103DE00030BD91EA030F1EBF0021002030BD5FEA05
:103DF000545C05D14000494128BF41F0004130BD2D
:103E000014F580043CBF01F5801130BD01F0004580
:103E100045F0FE4141F470014FF0000030BD7FEAF3
:103E2000645C1ABF194610467FEA655C1CBF0B46EE
:103E3000024650EA013406BF52EA033591EA030F05
:103E400041F4002130BD00BF90F0000F04BF0021FD
:103E5000704730B54FF4806404F132044FF0000530
:103E60004FF0000150E700BF90F0000F04BF0021A9
:103E7000704730B54FF4806404F1320410F000450F
:103E800048BF40424FF000013EE700BF42004FEA0A
:103E9000E2014FEA31014FEA02701FBF12F07F4387
:103EA00093F07F4F81F06051704792F0000F14BF84
:103EB00093F07F4F704730B54FF4607401F00045C8
:103EC00021F0004120E700BF50EA010208BF70471F
:103ED00030B54FF000050AE050EA010208BF704714
:103EE00030B511F0004502D5404261EB41014FF47D
:103EF000806404F132045FEA915C3FF4DCAE4FF081
:103F000003025FEADC0C18BF03325FEADC0C18BF67
:103F1000033202EBDC02C2F1200300FA03FC20FAB8
:103F200002F001FA03FE40EA0E0021FA02F1144405
:103F3000C1E600BF70B54FF0FF0C4CF4E06C1CEA1A
:103F400011541DBF1CEA135594EA0C0F95EA0C0F8F
:103F500000F0DEF82C4481EA030621EA4C5123EA02
:103F60004C5350EA013518BF52EA033541F4801131
:103F700043F4801338D0A0FB02CE4FF00005E1FBE4
:103F800002E506F00042E0FB03E54FF00006E1FB2E
:103F900003569CF0000F18BF4EF0010EA4F1FF0471
:103FA000B6F5007F64F5407404D25FEA4E0E6D41B1
:103FB00046EB060642EAC62141EA55514FEAC520C2
:103FC00040EA5E504FEACE2EB4F1FD0C88BFBCF53E
:103FD000E06F1ED8BEF1004F08BF5FEA500E50F1EF
:103FE000000041EB045170BD06F0004646EA0101B5
:103FF00040EA020081EA0301B4EB5C04C2BFD4EBE7
:104000000C0541EA045170BD41F480114FF0000EDF
:10401000013C00F3AB8014F1360FDEBF002001F04D
:10402000004170BDC4F10004203C35DA0C341BDCC7
:1040300004F11404C4F1200500FA05F320FA04F099
:1040400001FA05F240EA020001F0004221F00041CD
:1040500010EBD37021FA04F642EB06015EEA430E40
:1040600008BF20EAD37070BDC4F10C04C4F1200570
:1040700000FA04F320FA05F001FA04F240EA020023
:1040800001F0004110EBD37041F100015EEA430EF4
:1040900008BF20EAD37070BDC4F1200500FA05F214
:1040A0004EEA020E20FA04F301FA05F243EA020393
:1040B00021FA04F001F0004121FA04F220EA0200A2
:1040C00000EBD3705EEA430E08BF20EAD37070BDE8
:1040D00094F0000F0FD101F00046400041EB0101C8
:1040E00011F4801F08BF013CF7D041EA060195F0AA
:1040F000000F18BF704703F00046520043EB030364
:1041000013F4801F08BF013DF7D043EA0603704750
:1041100094EA0C0F0CEA135518BF95EA0C0F0CD05B
:1041200050EA410618BF52EA4306D1D181EA0301A1
:1041300001F000414FF0000070BD50EA410606BF9B
:104140001046194652EA430619D094EA0C0F02D1E0
:1041500050EA013613D195EA0C0F05D152EA033625
:104160001CBF104619460AD181EA030101F0004143
:1041700041F0FE4141F470014FF0000070BD41F08C
:10418000FE4141F4780170BD70B54FF0FF0C4CF466
:10419000E06C1CEA11541DBF1CEA135594EA0C0F85
:1041A00095EA0C0F00F0A7F8A4EB050481EA030ED2
:1041B00052EA03354FEA013100F088804FEA0333B9
:1041C0004FF0805545EA131343EA12634FEA022287
:1041D00045EA111545EA10654FEA00260EF0004148
:1041E0009D4208BF964244F1FD0404F5407402D29A
:1041F0005B084FEA3202B61A65EB03055B084FEA2B
:1042000032024FF480104FF4002CB6EB020E75EB27
:10421000030E22BFB61A754640EA0C005B084FEA4F
:104220003202B6EB020E75EB030E22BFB61A7546CC
:1042300040EA5C005B084FEA3202B6EB020E75EB17
:10424000030E22BFB61A754640EA9C005B084FEA8F
:104250003202B6EB020E75EB030E22BFB61A75469C
:1042600040EADC0055EA060E18D04FEA051545EA8B
:1042700016754FEA06164FEAC30343EA52734FEA34
:10428000C2025FEA1C1CC0D111F4801F0BD141EAAD
:1042900000014FF000004FF0004CB6E711F4801F12
:1042A00004BF01430020B4F1FD0C88BFBCF5E06FF2
:1042B0003FF6AFAEB5EB030C04BFB6EB020C5FEA02
:1042C000500C50F1000041EB045170BD0EF0004E57
:1042D0004EEA113114EB5C04C2BFD4EB0C0541EA89
:1042E000045170BD41F480114FF0000E013C90E686
:1042F00045EA060E8DE60CEA135594EA0C0F08BF4A
:1043000095EA0C0F3FF43BAF94EA0C0F0AD150EA48
:1043100001347FF434AF95EA0C0F7FF425AF1046DB
:1043200019462CE795EA0C0F06D152EA03353FF403
:10433000FDAE1046194622E750EA410618BF52EA80
:1043400043067FF4C5AE50EA41047FF40DAF52EA54
:1043500043057FF4EBAE12E74FEA410212F500127B
:1043600015D211D56FF47873B3EB625212D94FEABC
:10437000C12343F0004343EA505311F0004F23FAA6
:1043800002F018BF404270474FF00000704750EAFB
:10439000013005D111F0004008BF6FF000407047B8
:1043A0004FF00000704700BF024B01461868FFF74E
:1043B0003BB900BFF08DFF1F3C800440001000009F
:1043C000041A0000FF7F0000111000002D280000DB
:1043D0000C08000000020000000200000B070000B3
:1043E00040020000000200000D0E0000400200002C
:1043F000000200000A020906141715160F0000003B
:1044000000020000000200000002000000020000A4
:104410000002000000020000000200000002000094
:10442000000200000101020204040808100000005C
:10443000050E08090D0C06070F040013031F050ED7
:1044400008090D0C06070F041F1F1F1F1F1F1F1F2A
:104450001F1F4053435F1A16171B1D1E2280240383
:104460001F1F08091F1F1F1F1F1F031F00131F1FD0
:1044700008091F1F1F1F1F1F1F1F85050406078414
:104480001F1F435F40531A121F1B1D1E220324804F
:10449000000100003488FF1F12000000000200002D
:1044A0009888FF1F43000000000300009488FF1F4E
:1044B00000000000010309047C88FF1F00000000C9
:1044C000020309046488FF1F0000000003030904BD
:1044D0004888FF1F000000000000000000000000EE
:1044E0000000000000FFFFFF4008FE4340A0044022
:1044F0004408FE4344A004400018FE4300C00440AA
:104500003000FE43309004403400FE4334900440B9
:104510001C18FE431CC004401018FE4310C0044089
:104520000818FE4308C004400C18FE430CC00440A9
:104530000C10FE430CB004401010FE4310B00440B9
:104540001810FE4318B004401C10FE431CB0044079
:104550001410FE4314B004400418FE4304C0044089
:104560000010FE4300B004400008FE4300A00440D9
:104570000408FE4304A004400C08FE430CA00440C1
:104580000808FE4308A004401418FE4314C0044069
:104590001818FE4318C004400410FE4304B0044041
:1045A0000810FE4308B004401400FE431490044079
:1045B0004C08FE434CA004400420FE4304D00440B9
:1045C0002410FE4324B004402010FE4320B00440D9
:1045D0002810FE4328B004402C10FE432CB00440A9
:1045E0000020FE4300D004404808FE4348A0044099
:1045F0001000FE4310900440001519150000000043
:10460000000100000000000000000000C889FF1F3A
:10461000F8B500BFF8BC08BC9E467047D132000018
:0846200035040000910E0000BA
:04462800F8B500BF22
:10462C0038B5084B1C681C6054B1074D94FAA4F3C0
:10463C00B3FA83F355F823309847631E1C40F5D129
:10464C0038BD00BFA0D00440DC88FF1F38B5084B34
:10465C001C681C6054B1074D94FAA4F3B3FA83F3AD
:10466C0055F823309847631E1C40F5D138BD00BF68
:10467C00A0C00440E488FF1F38B5084B1C681C60C0
:10468C0054B1074D94FAA4F3B3FA83F355F82330DD
:10469C009847631E1C40F5D138BD00BFA0B0044044
:1046AC000489FF1F38B5084B1C681C6054B1074DBA
:1046BC0094FAA4F3B3FA83F355F823309847631EA6
:1046CC001C40F5D138BD00BFA0A004403489FF1FA9
:1046DC0038B5084B1C681C6054B1074D94FAA4F310
:1046EC00B3FA83F355F823309847631E1C40F5D179
:1046FC0038BD00BFA09004408489FF1F00C0024059
:10470C00B8430000000000000000000000000000A2
:10471C00000000000000000000000000000000008D
:10472C00000000000000000000000000000000007D
:10473C00000000001201100102000040C0168304AA
:10474C0075020102030100000C03000000000000D0
:10475C00000000000000000000000000000000004D
:10476C009C95FF1F16035500530042002000530078
:10477C0065007200690061006C00000018035400B1
:10478C00650065006E0073007900640075006900B7
:10479C006E006F000403090409024300020100C00B
:1047AC003209040000010202010005240010010579
:1047BC0024010101042402060524060001070582D8
:1047CC000310004009040100020A00000007050361
:1047DC00024000000705840240000000A90F000001
:1047EC00A90F0000A90F0000A90F0000A90F0000DD
:1047FC00A90F0000A90F0000A90F0000A90F0000CD
:10480C00A90F0000A90F0000A90F0000A90F0000BC
:10481C00A90F0000A90F0000A90F0000A90F0000AC
:10482C00A90F0000A90F0000A90F0000A90F00009C
:10483C00A90F0000A90F0000A90F0000A90F00008C
:10484C00A90F0000A90F0000A90F0000A90F00007C
:10485C00A90F0000A90F0000A90F0000A90F00006C
:10486C00A90F0000A90F0000A90F0000A90F00005C
:10487C00A90F0000A90F0000A90F0000A90F00004C
:10488C00A90F0000A90F0000A90F0000A90F00003C
:10489C00A90F0000A90F0000A90F0000A90F00002C
:1048AC00A90F0000A90F0000A90F0000A90F00001C
:1048BC00A90F0000A90F0000A90F000001000000C3
:1048CC00FFFFFFFF0000000000000000B48CFF1F82
:1048DC001C8DFF1F848DFF1F0000000000000000D6
:1048EC0000000000000000000000000000000000BC
:1048FC0000000000000000000000000000000000AC
:10490C00000000000000000000000000000000009B
:10491C00000000000000000000000000000000008B
:10492C00000000000000000000000000000000007B
:10493C00000000000000000000000000000000006B
:10494C00000000000000000000000000000000005B
:10495C00000000000000000000000000000000004B
:10496C00000000000000000000000000000000003B
:10497C0001000000000000000E33CDAB34126DE6D8
:10498C00ECDE05000B000000000000000000000041
:10499C00000000000000000000000000000000000B
:1049AC0000000000000000000000000000000000FB
:1049BC0000000000000000000000000000000000EB
:1049CC0000000000000000000000000000000000DB
:104CFC00C889FF1F0000000000000000F48DFF1F9A
:104D0C00F48DFF1FFC8DFF1FFC8DFF1F048EFF1FFA
:104D1C00048EFF1F0C8EFF1F0C8EFF1F148EFF1FA7
:104D2C00148EFF1F1C8EFF1F1C8EFF1F248EFF1F57
:104D3C00248EFF1F2C8EFF1F2C8EFF1F348EFF1F07
:104D4C00348EFF1F3C8EFF1F3C8EFF1F448EFF1FB7
:104D5C00448EFF1F4C8EFF1F4C8EFF1F548EFF1F67
:104D6C00548EFF1F5C8EFF1F5C8EFF1F648EFF1F17
:104D7C00648EFF1F6C8EFF1F6C8EFF1F748EFF1FC7
:104D8C00748EFF1F7C8EFF1F7C8EFF1F848EFF1F77
:104D9C00848EFF1F8C8EFF1F8C8EFF1F948EFF1F27
:104DAC00948EFF1F9C8EFF1F9C8EFF1FA48EFF1FD7
:104DBC00A48EFF1FAC8EFF1FAC8EFF1FB48EFF1F87
:104DCC00B48EFF1FBC8EFF1FBC8EFF1FC48EFF1F37
:104DDC00C48EFF1FCC8EFF1FCC8EFF1FD48EFF1FE7
:104DEC00D48EFF1FDC8EFF1FDC8EFF1FE48EFF1F97
:104DFC00E48EFF1FEC8EFF1FEC8EFF1FF48EFF1F47
:104E0C00F48EFF1FFC8EFF1FFC8EFF1F048FFF1FF5
:104E1C00048FFF1F0C8FFF1F0C8FFF1F148FFF1FA2
:104E2C00148FFF1F1C8FFF1F1C8FFF1F248FFF1F52
:104E3C00248FFF1F2C8FFF1F2C8FFF1F348FFF1F02
:104E4C00348FFF1F3C8FFF1F3C8FFF1F448FFF1FB2
:104E5C00448FFF1F4C8FFF1F4C8FFF1F548FFF1F62
:104E6C00548FFF1F5C8FFF1F5C8FFF1F648FFF1F12
:104E7C00648FFF1F6C8FFF1F6C8FFF1F748FFF1FC2
:104E8C00748FFF1F7C8FFF1F7C8FFF1F848FFF1F72
:104E9C00848FFF1F8C8FFF1F8C8FFF1F948FFF1F22
:104EAC00948FFF1F9C8FFF1F9C8FFF1FA48FFF1FD2
:104EBC00A48FFF1FAC8FFF1FAC8FFF1FB48FFF1F82
:104ECC00B48FFF1FBC8FFF1FBC8FFF1FC48FFF1F32
:104EDC00C48FFF1FCC8FFF1FCC8FFF1FD48FFF1FE2
:104EEC00D48FFF1FDC8FFF1FDC8FFF1FE48FFF1F92
:104EFC00E48FFF1FEC8FFF1FEC8FFF1FF48FFF1F42
:104F0C00F48FFF1FFC8FFF1FFC8FFF1F0490FF1FF0
:104F1C000490FF1F0C90FF1F0C90FF1F1490FF1F9D
:104F2C001490FF1F1C90FF1F1C90FF1F2490FF1F4D
:104F3C002490FF1F2C90FF1F2C90FF1F3490FF1FFD
:104F4C003490FF1F3C90FF1F3C90FF1F4490FF1FAD
:104F5C004490FF1F4C90FF1F4C90FF1F5490FF1F5D
:104F6C005490FF1F5C90FF1F5C90FF1F6490FF1F0D
:104F7C006490FF1F6C90FF1F6C90FF1F7490FF1FBD
:104F8C007490FF1F7C90FF1F7C90FF1F8490FF1F6D
:104F9C008490FF1F8C90FF1F8C90FF1F9490FF1F1D
:104FAC009490FF1F9C90FF1F9C90FF1FA490FF1FCD
:104FBC00A490FF1FAC90FF1FAC90FF1FB490FF1F7D
:104FCC00B490FF1FBC90FF1FBC90FF1FC490FF1F2D
:104FDC00C490FF1FCC90FF1FCC90FF1FD490FF1FDD
:104FEC00D490FF1FDC90FF1FDC90FF1FE490FF1F8D
:104FFC00E490FF1FEC90FF1FEC90FF1FF490FF1F3D
:10500C00F490FF1FFC90FF1FFC90FF1F0491FF1FEB
:10501C000491FF1F0C91FF1F0C91FF1F1491FF1F98
:10502C001491FF1F1C91FF1F1C91FF1F2491FF1F48
:10503C002491FF1F2C91FF1F2C91FF1F3491FF1FF8
:10504C003491FF1F3C91FF1F3C91FF1F4491FF1FA8
:10505C004491FF1F4C91FF1F4C91FF1F5491FF1F58
:10506C005491FF1F5C91FF1F5C91FF1F6491FF1F08
:10507C006491FF1F6C91FF1F6C91FF1F7491FF1FB8
:10508C007491FF1F7C91FF1F7C91FF1F8491FF1F68
:10509C008491FF1F8C91FF1F8C91FF1F9491FF1F18
:1050AC009491FF1F9C91FF1F9C91FF1FA491FF1FC8
:1050BC00A491FF1FAC91FF1FAC91FF1FB491FF1F78
:1050CC00B491FF1FBC91FF1FBC91FF1FC491FF1F28
:1050DC00C491FF1FCC91FF1FCC91FF1FD491FF1FD8
:1050EC00D491FF1FDC91FF1FDC91FF1FE491FF1F88
:1050FC00E491FF1FEC91FF1FEC91FF1F00000200D9
:04510C00FFFFFFFFA3
:00000001FF
